:100000000C9462000C948A000C948A000C948A0070
:100010000C948A000C948A000C948A000C948A0038
:100020000C948A000C948A000C948A000C948A0028
:100030000C948A000C948A000C948A000C948A0018
:100040000C9443050C948A000C9411050C94EB0459
:100050000C948A000C948A000C948A000C948A00F8
:100060000C948A000C948A000000000024002700F1
:100070002A0000000000250028002B0000000000DE
:1000800023002600290004040404040404040202DA
:100090000202020203030303030301020408102007
:1000A0004080010204081020010204081020000012
:1000B0000008000201000003040700000000000027
:1000C00000008D0511241FBECFEFD8E0DEBFCDBFED
:1000D00022E0A8E5B1E001C01D92A435B207E1F726
:1000E00011E0A0E0B1E0E2ECF1E102C005900D9278
:1000F000A835B107D9F710E0C2E6D0E004C02197D7
:10010000FE010E94D408C136D107C9F70E94DA0562
:100110000C94DF080C940000CF92DF92EF92FF92D4
:100120000F931F93CF93DF936C017A018B01C0E093
:10013000D0E0CE15DF0589F0D8016D918D01D60193
:10014000ED91FC910190F081E02DC6010995892B7C
:1001500011F47E0102C02196ECCFC701DF91CF914F
:100160001F910F91FF90EF90DF90CF900895089529
:1001700080E090E00895FC01538D448D252F30E000
:10018000842F90E0821B930B541710F0CF960895A4
:1001900001970895FC01918D828D981761F0828DF1
:1001A000DF01A80FB11D5D968C91928D9F5F9F73AB
:1001B000928F90E008958FEF9FEF0895FC01918D4D
:1001C000828D981731F0828DE80FF11D858D90E0BA
:1001D00008958FEF9FEF0895FC01918D228D892F57
:1001E00090E0805C9F4F821B91098F73992708953F
:1001F0008BE691E00E94EC0021E0892B09F420E0DD
:10020000822F0895FC01848DDF01A80FB11DA35A30
:10021000BF4F2C91848D90E001968F739927848F26
:10022000A689B7892C93A089B1898C9180648C931D
:10023000938D848D981306C00288F389E02D808108
:100240008F7D80830895EF92FF920F931F93CF933A
:10025000DF93EC0181E0888F9B8D8C8D981305C016
:10026000E889F989808185FD24C0F62E0B8D10E088
:100270000F5F1F4F0F731127E02E8C8DE8120CC0FB
:100280000FB607FCFACFE889F989808185FFF5CFA1
:10029000CE010E940201F1CF8B8DFE01E80FF11D0E
:1002A000E35AFF4FF0820B8FEA89FB8980818062DD
:1002B00007C0EE89FF896083E889F98980818064BD
:1002C000808381E090E0DF91CF911F910F91FF90AB
:1002D000EF900895CF93DF93EC01888D8823C9F0C8
:1002E000EA89FB89808185FD05C0A889B9898C913F
:1002F00086FD0FC00FB607FCF5CF808185FFF2CFDA
:10030000A889B9898C9185FFEDCFCE010E940201A9
:10031000E7CFDF91CF91089580E090E0892B29F01D
:100320000E94F80081110C9400000895833081F040
:1003300028F4813099F08230A1F008958730A9F037
:100340008830B9F08430D1F4809180008F7D03C073
:10035000809180008F7780938000089584B58F7797
:1003600002C084B58F7D84BD08958091B0008F77E1
:1003700003C08091B0008F7D8093B0000895CF932B
:10038000DF93282F30E0F901E255FF4F8491F90106
:10039000E656FF4FD491F901EA57FF4FC491CC23A1
:1003A00091F081110E949601EC2FF0E0EE0FFF1FFB
:1003B000E458FF4FA591B491EC91ED2381E090E0DA
:1003C00021F480E002C080E090E0DF91CF910895B9
:1003D0001F93CF93DF93282F30E0F901E255FF4FB1
:1003E0008491F901E656FF4FD491F901EA57FF4F86
:1003F000C491CC23C9F0162F81110E949601EC2FD5
:10040000F0E0EE0FFF1FEE58FF4FA591B4918FB7AC
:10041000F894111105C09C91ED2FE095E92302C0DD
:10042000EC91ED2BEC938FBFDF91CF911F9108954D
:10043000CF93DF9390E0FC01E656FF4F2491FC013F
:10044000EA57FF4F8491882361F190E0880F991F4C
:10045000FC01E859FF4FC591D491FC01EE58FF4FC4
:10046000A591B491611109C09FB7F8948881209536
:1004700082238883EC912E230BC0623061F49FB7F6
:10048000F8943881822F809583238883EC912E2BDA
:100490002C939FBF06C08FB7F894E8812E2B28833A
:1004A0008FBFDF91CF9108953FB7F89480915D01A0
:1004B00090915E01A0915F01B091600126B5A89B6B
:1004C00005C02F3F19F00196A11DB11D3FBFBA2FE6
:1004D000A92F982F8827820F911DA11DB11DBC0146
:1004E000CD0142E0660F771F881F991F4A95D1F70B
:1004F00008952FB7F8946091590170915A01809135
:100500005B0190915C012FBF08953F924F925F92E3
:100510006F927F928F929F92AF92BF92CF92DF9213
:10052000EF92FF920F931F93CF93DF936C01EB0138
:10053000342E0E9454022B013C0184EF91E0BE0155
:100540000E94AC08EB0124978E01000F111F000FD1
:10055000111F05501109E12CF12C0E9454024B018E
:100560005C0184189508A608B708C814D904EA04E1
:10057000FB04A8F061E0832D0E94E801C230D105A0
:1005800018F0C8010197F1F760E0832D0E94E8019F
:10059000C230D10510F3C8010197F1F7DECFDF912A
:1005A000CF911F910F91FF90EF90DF90CF90BF9070
:1005B000AF909F908F907F906F905F904F903F9003
:1005C00008958F929F92AF92BF92CF92DF92EF9257
:1005D000FF926C010E9454024B015C01E12CF12C52
:1005E0000E945402DC01CB0188199909AA09BB09B0
:1005F000C816D906EA06FB0698F7FF90EF90DF9041
:10060000CF90BF90AF909F908F900895CF92DF9240
:10061000EF92FF920F931F93CF93DF93CDB7DEB787
:1006200064970FB6F894DEBF0FBECDBF84E1E4E05F
:10063000F1E0DE01119601900D928A95E1F703E059
:1006400010E06E0185E1C80ED11C4091500250911E
:100650005102609152027091530280E199E00E9430
:1006600085028AE892E00E94E102FE0131967F0154
:10067000EC14FD04C9F0F70181917F014091500213
:10068000509151026091520270915302811103C046
:100690008FE392E002C087E994E00E9485028AE835
:1006A00092E00E94E102E4CF80E197E20E94E10241
:1006B0000150110951F664960FB6F894DEBF0FBED3
:1006C000CDBFDF91CF911F910F91FF90EF90DF9001
:1006D000CF9008954F925F926F927F928F929F92E8
:1006E000AF92BF92CF92DF92EF92FF920F931F9340
:1006F000CF93DF93CDB7DEB72C970FB6F894DEBF5C
:100700000FBECDBF8C012B010E947902052C000C7D
:10071000660877089B01AC01240D351D461D571D49
:1007200029873A874B875C879E0127503109FE0154
:1007300031964AE0E42EF12C101611061CF01782B7
:10074000168207C0C801B7010E94AC089783868350
:100750008B013297E217F30779F70E947902298516
:100760003A854B855C85621773078407950708F007
:10077000BBC098E1A92E91E0B92EAE014F5F5F4F4B
:100780004A0160E083E00E94E80160E087E00E94A7
:10079000E80160E08EE00E94E80160E080E10E94F4
:1007A000E80160E083E10E94E80160E084E00E94EB
:1007B000E80160E08DE00E94E80161E082E00E94D3
:1007C000E80161E085E00E94E80161E086E00E94C6
:1007D000E80161E08CE00E94E801F5018081F2E02F
:1007E000AF0EB11C60E00E94E801F401019111918B
:1007F0004F010130110539F00430110521F061E09D
:1008000083E00E94E801C8010597029740F461E087
:100810008EE00E94E8010130110519F10FC061E07E
:1008200087E00E94E8010230110589F761E080E16C
:100830000E94E8010230110581F004C00430110566
:1008400029F407C00630110541F003C00730110537
:1008500069F7C801877F892B21F461E083E10E9459
:10086000E801C8010197039778F00730110579F086
:1008700061E084E00E94E8010230110540F061E08F
:100880008DE00E94E80103C001301105C1F70E940C
:1008900054022B013C0185E0C82ED12CE12CF12C17
:1008A0000E945402DC01CB0184199509A609B709FD
:1008B000883E9340A105B10558F0F1E0CF1AD10868
:1008C000E108F10828EE420E23E0521E611C711C63
:1008D000C114D104E104F10419F740E2A41641E087
:1008E000B40609F04ECF39CF2C960FB6F894DEBF80
:1008F0000FBECDBFDF91CF911F910F91FF90EF9071
:10090000DF90CF90BF90AF909F908F907F906F902F
:100910005F904F9008950E94DA086115710579F093
:10092000FB0101900020E9F73197AF01461B570BFF
:10093000DC01ED91FC910280F381E02D099480E0CF
:1009400090E008954F925F926F927F92EF92FF92A4
:100950000F931F93CF93DF93CDB7DEB7A1970FB659
:10096000F894DEBF0FBECDBF7C01FA01CB0119A206
:10097000223008F42AE08E010F5D1F4F422E512CC9
:10098000612C712CBF01A30192010E948A08F90118
:10099000CA01015011096A3014F4605D01C0695C3C
:1009A000D8016C93232B242B252B61F7B801C701A9
:1009B0000E948D04A1960FB6F894DEBF0FBECDBF86
:1009C000DF91CF911F910F91FF90EF907F906F90EB
:1009D0005F904F9008951F920F920FB60F921124BF
:1009E0002F933F934F935F936F937F938F939F9337
:1009F000AF93BF93EF93FF938BE691E00E940201C8
:100A0000FF91EF91BF91AF919F918F917F916F91E6
:100A10005F914F913F912F910F900FBE0F901F90BC
:100A200018951F920F920FB60F9211242F938F9348
:100A30009F93EF93FF93E0917B01F0917C01808184
:100A4000E0918101F091820182FD12C0908180913C
:100A500084018F5F8F7320918501821751F0E0919F
:100A60008401F0E0E559FE4F958F8093840101C029
:100A70008081FF91EF919F918F912F910F900FBEE9
:100A80000F901F9018951F920F920FB60F9211247E
:100A90002F933F938F939F93AF93BF93809159016F
:100AA00090915A01A0915B01B0915C013091580185
:100AB00023E0230F2D3720F40196A11DB11D05C0A1
:100AC00026E8230F0296A11DB11D209358018093A3
:100AD000590190935A01A0935B01B0935C018091FE
:100AE0005D0190915E01A0915F01B091600101965E
:100AF000A11DB11D80935D0190935E01A0935F01E4
:100B0000B0936001BF91AF919F918F913F912F91D1
:100B10000F900FBE0F901F901895EBE6F1E0138237
:100B2000128288EE93E0A0E0B0E084839583A683F0
:100B3000B78384E291E09183808385EC90E0958790
:100B4000848784EC90E09787868780EC90E0918B97
:100B5000808B81EC90E0938B828B82EC90E0958B84
:100B6000848B86EC90E0978B868B118E128E138E81
:100B7000148EE8E0F2E01682178210861186128643
:100B800013861486158616861786108A118A128A8D
:100B9000138A148A158A61E088E00E941802E0E551
:100BA000F2E088E090E09183808388E290E0938394
:100BB00082830895789484B5826084BD84B5816011
:100BC00084BD85B5826085BD85B5816085BD809118
:100BD0006E00816080936E00109281008091810090
:100BE0008260809381008091810081608093810088
:100BF000809180008160809380008091B10084604A
:100C00008093B1008091B00081608093B0008091AA
:100C10007A00846080937A0080917A008260809369
:100C20007A0080917A00816080937A0080917A00C6
:100C3000806880937A001092C10010924C0210924A
:100C40004D0210924E0210924F0210920A02109220
:100C50000B0210920C0210920D020E9479026B019D
:100C60007C014B015C0128EB820E2BE0921EA11C43
:100C7000B11C0E9479026C157D058E059F0528F038
:100C800086169706A806B906A0F78BE691E0909322
:100C90004B0280934A02E0917B01F0917C0182E05B
:100CA0008083E0917701F09178011082E0917901E1
:100CB000F0917A0180E1808310928301E0917F01BD
:100CC000F091800186E08083E0917D01F0917E01CA
:100CD000808180618083E0917D01F0917E0180813F
:100CE00088608083E0917D01F0917E018081806841
:100CF0008083E0917D01F0917E0180818F7D8083F2
:100D00000E94790260930A0270930B0280930C0296
:100D100090930D0262E371E080914A0290914B0240
:100D20000E948D040E9479026B017C014B015C01E1
:100D30003AE0830E911CA11CB11C0E9479026C1533
:100D40007D058E059F0528F086169706A806B9062C
:100D5000A0F781E080931E0261E083E00E94180208
:100D600061E087E00E94180261E08EE00E941802B4
:100D700061E080E10E94180261E083E10E941802B4
:100D800061E084E00E94180261E08DE00E94180298
:100D900061E08FE00E94180260E08AE00E94180281
:100DA00060E081E10E94180261E082E00E94180286
:100DB00061E085E00E94180261E086E00E9418026E
:100DC00061E08CE00E94180260E089E00E94180255
:100DD00084EFC82EDD24D394E12CF12C08EC10E034
:100DE0000E947902672B682B692B41F40E947902DB
:100DF000623071058105910508F418C10E947902DD
:100E000060936701709368018093690190936A0110
:100E10008090630190906401A0906501B09066019C
:100E2000681579058A059B0540F46093630170930A
:100E300064018093650190936601809063019090B6
:100E40006401A0906501B09066019B01AC01281976
:100E500039094A095B0949015A013AEF831691049D
:100E6000A104B10408F4E2C06093630170936401CB
:100E70008093650190936601C0921602D09217028A
:100E8000E0921802F092190210921A0210921B02BC
:100E900010921C0210921D0280910E0290910F027E
:100EA000A0911002B091110280931202909313024C
:100EB000A0931402B09315020E94790260930E026F
:100EC00070930F0280931002909311020E94790296
:100ED00060930A0270930B0280930C0290930D02B0
:100EE0000E9479024B015C0164E471E080914A0246
:100EF00090914B020E948D042AE041E050E060E0B6
:100F000070E080914A0290914B020E94A2046BE42F
:100F100071E080914A0290914B020E948D042AE078
:100F2000B501A40180914A0290914B020E94A20453
:100F30006DE471E080914A0290914B020E948D0411
:100F400080910E0290910F02A0911002B0911102B7
:100F5000B501A401481B590B6A0B7B0B2AE0809159
:100F60004A0290914B020E94A2046DE471E08091CC
:100F70004A0290914B020E948D0440910E025091C2
:100F80000F026091100270911102809112029091F3
:100F90001302A0911402B0911502481B590B6A0B61
:100FA0007B0B2AE080914A0290914B020E94A2049E
:100FB0006FE471E080914A0290914B020E948D048F
:100FC0000E947902AB01BC012AE080914A02909113
:100FD0004B020E94A204C0914A02D0914B0261E5EB
:100FE00071E0CE010E948D0461E471E0CE010E94A7
:100FF0008D040E9479022B013C014B015C0145E00C
:10100000840E911CA11CB11C0E9479026415750507
:101010008605970508F077C00E94790260930E025A
:1010200070930F02809310029093110289E00E9446
:10103000BF01892BF1F5C0910201D091030165E058
:1010400070E0CE010E946A038AE00E94BF01892BF2
:1010500031F4CF3057E2D5077CF4219609C081E105
:101060000E94BF01892BE1F41C161D062CF4219768
:10107000D0930301C0930201C0910001D0910101FE
:10108000BE0180910201909103010E946A03C53064
:10109000D105B4F12597D0930101C093000130C070
:1010A00010930101009300011092620110926101FE
:1010B00027C089E00E94BF01019711F5C09161012D
:1010C000D091620168EB7BE0CE010E946A030E942E
:1010D0000603A0900201B09003011A141B044CF403
:1010E00068EE73E0C5010E946A0381E0A81AB108A6
:1010F000F4CF0E9406032196D0936201C093610150
:101100000E948C016DCE86169706A806B90608F0D7
:101110007BCF82CFA1E21A2EAA1BBB1BFD010DC003
:10112000AA1FBB1FEE1FFF1FA217B307E407F50797
:1011300020F0A21BB30BE40BF50B661F771F881F73
:10114000991F1A9469F760957095809590959B0109
:10115000AC01BD01CF01089597FB072E16F4009452
:1011600007D077FD09D00E94C00807FC05D03EF4E7
:10117000909581959F4F0895709561957F4F089543
:10118000AA1BBB1B51E107C0AA1FBB1FA617B707AD
:1011900010F0A61BB70B881F991F5A95A9F78095C9
:1011A0009095BC01CD010895EE0FFF1F0590F491BD
:1011B000E02D099481E090E0F8940C94DF08F89415
:0211C000FFCF5F
:1011C200C800050001000101000100000100010149
:1011D20001000000010101010200050006000C00EF
:1011E2000000000023018C00BB006A01EC00CA0071
:1011F200DE00564D4450565F317C315F564D4450AF
:10120200560D0A00564D4450455F003A323A007C72
:08121200005F564D44504500F9
:107800000C94343C0C94513C0C94513C0C94513CE1
:107810000C94513C0C94513C0C94513C0C94513CB4
:107820000C94513C0C94513C0C94513C0C94513CA4
:107830000C94513C0C94513C0C94513C0C94513C94
:107840000C94513C0C94513C0C94513C0C94513C84
:107850000C94513C0C94513C0C94513C0C94513C74
:107860000C94513C0C94513C11241FBECFEFD8E036
:10787000DEBFCDBF11E0A0E0B1E0ECE9FFE702C060
:1078800005900D92A230B107D9F712E0A2E0B1E065
:1078900001C01D92AD30B107E1F70E942D3D0C945F
:1078A000CC3F0C94003C982F959595959595959582
:1078B000905D8F708A307CF0282F295A8091C0000B
:1078C00085FFFCCF9093C6008091C00085FFFCCF60
:1078D0002093C6000895282F205DF0CF982F809127
:1078E000C00085FFFCCF9093C6000895EF92FF92F1
:1078F0000F931F93EE24FF2487018091C00087FD22
:1079000017C00894E11CF11C011D111D81E4E8164B
:1079100082E4F8068FE0080780E0180770F3E09132
:107920000401F091050109958091C00087FFE9CF1E
:107930008091C6001F910F91FF90EF9008950E94D3
:10794000763C982F8091C00085FFFCCF9093C600B5
:1079500091362CF490330CF09053892F089597555D
:10796000892F08951F930E949F3C182F0E949F3CCF
:107970001295107F810F1F9108951F93182F882350
:1079800021F00E94763C1150E1F71F9108951F935A
:10799000182F0E94763C803249F0809103018F5F5E
:1079A000809303018530C1F01F9108958091C0003C
:1079B00085FFFCCF84E18093C6008091C00085FFE5
:1079C000FCCF1093C6008091C00085FFFCCF80E102
:1079D0008093C6001F910895E0910401F091050184
:1079E00009951F9108950E94763C803241F0809164
:1079F00003018F5F80930301853081F008958091AA
:107A0000C00085FFFCCF84E18093C6008091C00058
:107A100085FFFCCF80E18093C6000895E0910401CA
:107A2000F09105010995089540E951E08823A1F0FE
:107A30002D9A28EE33E0FA013197F1F721503040CA
:107A4000D1F72D9828EE33E0FA013197F1F7215064
:107A50003040D1F7815061F708953F924F925F9285
:107A60006F927F928F929F92AF92BF92CF92DF924E
:107A7000EF92FF920F931F93CF93DF93000080E16B
:107A80008093C4001092C50088E18093C10086E015
:107A90008093C2005098589A259A81E00E94143D24
:107AA00024E1F22E9EE1E92E85E9D82E0FE0C02ECA
:107AB00010E1B12EAA24A394B1E49B2EA6E58A2E50
:107AC000F2E57F2EE0E26E2E79E4572E63E5462E36
:107AD00050E5352E0E94763C8033B1F18133B9F107
:107AE000803409F46FC0813409F476C0823409F41B
:107AF00085C0853409F488C0803531F1823521F1A3
:107B0000813511F1853509F485C0863509F48DC0BC
:107B1000843609F496C0843709F403C1853709F423
:107B200072C1863709F466C0809103018F5F80932C
:107B30000301853079F6E0910401F0910501099582
:107B40000E94763C803351F60E94F33CC3CF0E94E2
:107B5000763C803249F78091C00085FFFCCFF092DF
:107B6000C6008091C00085FFFCCF9092C600809136
:107B7000C00085FFFCCF8092C6008091C00085FFC9
:107B8000FCCF7092C6008091C00085FFFCCF609250
:107B9000C6008091C00085FFFCCF5092C600809146
:107BA000C00085FFFCCF4092C6008091C00085FFD9
:107BB000FCCF3092C6008091C00085FFFCCFB09210
:107BC000C60088CF0E94763C863808F4BDCF0E945C
:107BD000763C0E94F33C7ECF0E94763C803809F4CC
:107BE0009CC0813809F40BC1823809F43CC1883942
:107BF00009F48FC080E00E94C73C6CCF84E10E94F2
:107C0000BD3C0E94F33C66CF85E00E94BD3C0E94D3
:107C1000F33C60CF0E94763C809306010E94763C44
:107C2000809307010E94F33C55CF0E94763C80333D
:107C300009F41DC183E00E94BD3C80E00E94C73C66
:107C400049CF0E94763C809309020E94763C809343
:107C5000080280910C028E7F80930C020E94763C79
:107C6000853409F415C18091080290910902892B8D
:107C700089F000E010E00E94763CF801E85FFE4FDA
:107C800080830F5F1F4F80910802909109020817AF
:107C9000190788F30E94763C803209F045CF809125
:107CA0000C0280FF01C16091060170910701660F0F
:107CB000771F7093070160930601A0910802B091AD
:107CC00009021097C9F0E8E0F1E09B01AD014E0F09
:107CD0005F1FF999FECF32BD21BD819180BDFA9A17
:107CE000F99A2F5F3F4FE417F50799F76A0F7B1F4B
:107CF00070930701609306018091C00085FFFCCF5F
:107D0000F092C6008091C00085FFFCCFB092C60003
:107D1000E1CE83E00E94C73CDDCE82E00E94C73CFA
:107D2000D9CE0E94763C809309020E94763C8093D3
:107D300008028091060190910701880F991F909386
:107D40000701809306010E94763C853409F4A6C0A1
:107D500080910C028E7F80930C020E94763C8032D0
:107D600009F0B8CE8091C00085FFFCCFF092C6002C
:107D7000609108027091090261157105B9F140E046
:107D800050E080910C02A82FA170B82FB27011C0E2
:107D9000BB2309F45CC0E0910601F0910701319624
:107DA000F0930701E09306014F5F5F4F46175707B7
:107DB000E8F4AA2369F3F999FECF209106013091E6
:107DC000070132BD21BDF89A90B58091C00085FFB2
:107DD000FCCF9093C6002F5F3F4F30930701209355
:107DE00006014F5F5F4F4617570718F38091C00099
:107DF00085FDE5CE8091C00085FFF8CFE0CE81E023
:107E00000E94C73C67CE0E94763C803209F08CCE3F
:107E10008091C00085FFFCCFF092C6008091C00029
:107E200085FFFCCFE092C6008091C00085FFFCCFAB
:107E3000D092C6008091C00085FFFCCFC092C600E2
:107E40008091C00085FFFCCFB092C60043CEE09188
:107E50000601F091070194918091C00085FFFCCF4D
:107E60009093C6009CCF80E10E94C73C33CE0E9415
:107E7000763C0E94763C182F0E94763C112309F430
:107E800083C0113009F484C08FE00E94C73C22CE29
:107E900080910C02816080930C02E5CE80910C02EF
:107EA000816080930C0259CF809107018823880F4D
:107EB000880B8A2180930B02809106019091070123
:107EC000880F991F90930701809306018091080203
:107ED00080FF09C080910802909109020196909359
:107EE000090280930802F894F999FECF1127E091D6
:107EF0000601F0910701C8E0D1E08091080290915D
:107F00000902103091F40091570001700130D9F34B
:107F100003E000935700E89500915700017001308D
:107F2000D9F301E100935700E89509901990009169
:107F3000570001700130D9F301E000935700E89534
:107F40001395103498F011270091570001700130FB
:107F5000D9F305E000935700E895009157000170B0
:107F60000130D9F301E100935700E895329602976A
:107F700009F0C7CF103011F00296E5CF112480919F
:107F8000C00085FFB9CEBCCE8EE10E94C73CA2CD19
:0C7F900085E90E94C73C9ECDF894FFCF0D
:027F9C00800063
:040000030000780081
:00000001FF