S015000049722052656D6F746520332E302E7372656317
S11300000C9434000C9451000C9451000C94510045
S11300100C9496050C9451000C9451000C945100CE
S11300200C9451000C9451000C9451000C948302D4
S11300300C9451000C9451000C9451000C945100F8
S11300400C9451000C9451000C9451000C945100E8
S11300500C9451000C9451000C9451000C945100D8
S11300600C9451000C94510011241FBECFEFD8E022
S1130070DEBFCDBF11E0A0E0B1E0E8E9F0E102C0ED
S113008005900D92A235B107D9F711E0A2E5B1E0D0
S113009001C01D92A236B107E1F70E94D4020C946C
S11300A04A080C940000FC01818190E0AC014053AB
S11300B05040662379F18081833491F08434E9F0EF
S11300C0823409F057C0E5E2F0E0208181E090E05D
S11300D002C0880F991F4A95E2F7282B20830895C0
S11300E0E8E2F0E0208181E090E002C0880F991FEF
S11300F04A95E2F7282B20830895EBE2F0E0208173
S113010081E090E002C0880F991F4A95E2F7282BFE
S1130110208308958081833491F08434F1F0823413
S113012049F5E5E2F0E0208181E090E002C0880F2B
S1130130991F4A95E2F78095822380830895E8E227
S1130140F0E0208181E090E002C0880F991F4A9579
S1130150E2F78095822380830895EBE2F0E020812A
S113016081E090E002C0880F991F4A95E2F78095DC
S11301708223808308952F923F924F925F927F92C1
S11301808F929F92AF92BF92CF92DF92EF92FF92A3
S11301900F931F93DF93CF93CDB7DEB764970FB65A
S11301A0F894DEBF0FBECDBFDE011196EEE3F1E0A1
S11301B084E101900D928150E1F77724EE240AE264
S11301C00F2EF8E2AF2EFAE0BF2EF02D2E01089488
S11301D0411C511C0F2EF5E18F2E9924F02D8C0E0D
S11301E09D1EFE2C0F2EF0E42F2EFCE93F2EF02D49
S11301F067C080913A0190913B0161E00E945300F5
S1130200802F8A95F1F780913A0190913B016E2DF0
S11302100E945300802F8A95F1F71F5F113949F727
S1130220C5010197F1F76201F60180818823E1F4A9
S11302301F2D80913A0190913B0161E00E9453008F
S1130240802F8A95F1F780913A0190913B016F2DAF
S11302500E945300802F8A95F1F71F5F133249F7EC
S1130260C5010197F1F71EC01F2D80913A019091AD
S11302703B0161E00E945300802F8A95F1F7809141
S11302803A0190913B016F2D0E945300802F8A9573
S1130290F1F71F5F193449F7C5010197F1F7C5015B
S11302A00197F1F70894C11CD11CC814D90409F0B2
S11302B0BBCFC1010197F1F77394F3E07F1611F0FE
S11302C01E2D97CF64960FB6F894DEBF0FBECDBF38
S11302D0CF91DF911F910F91FF90EF90DF90CF901E
S11302E0BF90AF909F908F907F905F904F903F9082
S11302F02F9008951F93182F813069F0843059F09E
S113030080912C0190912D0161E00E945300812F76
S11303108550823038F080912E0190912F0161E058
S11303200E945300123069F08091300190913101A4
S113033061E00E945300113069F0143059F0173015
S113034049F0809132019091330161E00E945300A1
S1130350123031F0163021F0183011F0112339F435
S1130360809134019091350161E00E945300812F06
S11303708150833048F0173091F08091360190918C
S1130380370161E00E945300123048F0173039F011
S1130390809138019091390161E00E9453001F91CE
S11303A008950F931F93CF93DF93CCE2D1E00AE338
S11303B011E08991999160E00E945300C017D10720
S11303C0C1F7DF91CF911F910F9108952F923F9222
S11303D04F925F926F927F928F929F92AF92BF9251
S11303E0CF92DF92EF92FF920F931F93DF93CF93FD
S11303F000D000D0CDB7DEB719821A821B821C82CE
S1130400FE0134969C012115310511F410820EC0B1
S1130410C9016AE070E00E9414088083C9016AE09F
S113042070E00E941408862F972F9C013197EC17D7
S1130430FD0749F704E211E06E010894C11CD11CC8
S1130440780122243324689421F8200E311E442498
S11304505524689442F8400E511E0F2EF6E06F2E7C
S11304607724F02D600E711E0F2EF0E28F2EFEE425
S11304709F2EF02DAA24BB246894A3F8A00EB11ECD
S11304800E94D101F7018081918161E00E945300B3
S1130490F1018081918161E00E945300F201808129
S11304A0918161E00E945300F3018081918161E0B8
S11304B00E945300F801819191918F0160E00E94A4
S11304C05300F60181916F010E947A01C4010197E2
S11304D0F1F70A151B05A1F60F900F900F900F90DE
S11304E0CF91DF911F910F91FF90EF90DF90CF900C
S11304F0BF90AF909F908F907F906F905F904F9040
S11305003F902F9008951F920F920FB60F921124CF
S11305108F939F93AF93BF9380915E0190915F01FE
S1130520A0916001B09161010196A11DB11D80935C
S11305305E0190935F01A0936001B0936101BF914C
S1130540AF919F918F910F900FBE0F901F901895B0
S113055020E43FE140E050E00E942808822F932FDE
S1130560A42FB52FE1E8F0E020812A602083292F11
S11305703A2F4B2F55272093890080938800EFE66C
S1130580F0E08081826080830895F89420915E0178
S113059030915F0140916001509161017894622F24
S11305A0732F842F952F08952F923F924F925F922D
S11305B06F927F928F929F92AF92BF92CF92DF926F
S11305C0EF92FF920F931F93CF93DF938FEF84B932
S11305D015B8E7E2F0E08083A8E2B0E01C928AB9A3
S11305E01BB880818B7F80838C9184608C93808105
S11305F0877F80838C9188608C9380818D7F8083BA
S11306008C918C93E8E6F0E0808182608083ECE654
S1130610F0E0808182608083C4EFD1E00F2EF6E2A7
S11306208F2E9924F02D0F2EF0E96F2EF1E07F2EFE
S1130630F02D4424552443940F2EF4EF2F2EF1E093
S11306403F2EF02DC8C080913C0190913D010E9445
S1130650E6010E94D101F401808182FF5DC0809196
S11306603C0190913D01F7E28F309F0728F40196F9
S113067090933D0180933C01C530D10570F0BE01DB
S113068080E090E00E94FB062DEC3CEC4CE45FE340
S11306900E9489070E94CF06EB01BE0180E090E032
S11306A00E94FB065B016C0120E030E04AE755E460
S11306B00E9489077B018C0120E030E040E85FE381
S11306C00E94CB06882314F4B20122C0C801B701EA
S11306D020E03FEF4FE757E40E9485071816A4F483
S11306E0C601B50120E030E040E251E40E948907F0
S11306F00E94CF06CB01672B09F46DC0F30131973B
S1130700F1F70197D9F767C0C801B7010E94CF0676
S1130710CB010197F1F75FC0F401808183FD02C032
S1130720E10159C080913C0190913D01009729F06D
S1130730019790933D0180933C01C530D10570F041
S1130740BE0180E090E00E94FB062DEC3CEC4CE402
S11307505FE30E9489070E94CF06EB01BE0180E09F
S113076090E00E94FB065B016C0120E030E04AE768
S113077055E40E9489077B018C0120E030E040E8C9
S11307805FE30E94CB06882314F4B20121C0C801A0
S1130790B70120E03FEF4FE757E40E9485071816A2
S11307A09CF4C601B50120E030E040E251E40E942F
S11307B089070E94CF06CB01672B69F0F3013197BB
S11307C0F1F70197D9F707C0C801B7010E94CF0616
S11307D0CB010197F1F7F401808181FD34CF60E012
S11307E074E284EF90E00E94A80278940F2EFBE05C
S11307F03F2EF02D8824582C662463940F2EF3E0AA
S11308004F2EF02D982C062D0E94C5029B01AC01A1
S113081060E070E080E090E020935601309357014F
S1130820409358015093590160935A0170935B01AE
S113083080935C0190935D0106C080915401909176
S113084055010E94E6010E94C5025B016C01809182
S1130850560130915701409158019091590150919E
S11308605A0160915B0170915C01F0915D010F2E62
S1130870F8EB7F2EF02D780E262D781608F0252D16
S1130880E32EE30C862DE31608F0852D322F3E0D62
S1130890262D3E1508F0252D822BE32EF42EF80C80
S11308A0262DF41608F0252D382F3F0D862D3F15E3
S11308B008F0852D282BF32E192F180D862D1917C6
S11308C008F0852D322F310F262D311708F0252DF4
S11308D0822B132FB52FB80D262DB51708F0252D13
S11308E0382F3B0F862D3B1708F0852D282BB32F6F
S11308F0A62FA80D362DA61708F0352D2A0F862D04
S11309002A1708F0852D382BA22FE72FE80D862D06
S1130910E71708F0852D3E0F262D3E1708F0252DEC
S1130920822BE32FF80FA601950160E070E080E0D0
S113093090E09F1708F481CFF91709F58E1708F492
S11309407CCFE817E1F47A1708F477CFA717B9F446
S11309506B1708F472CFB61791F4511708F46DCFE2
S1130960151769F44F1508F468CFF41641F43E15D1
S113097008F463CFE31619F4A71408F45ECF0E94B9
S1130980BB0080913C0190913D0190935301809371
S11309905201892B09F4C7C00E94C5029B01AC0116
S11309A060E070E080E090E02093560130935701BE
S11309B0409358015093590160935A0170935B011D
S11309C080935C0190935D0106C0809152019091E7
S11309D053010E94E6010E94C5025B016C018091F3
S11309E0560130915701409158019091590150910D
S11309F05A0160915B0170915C01F0915D010F2ED1
S1130A00F8EE7F2EF02D780E202F781608F0292D81
S1130A10E32EE40C802FE31608F0892D322F3E0DCF
S1130A20202F3E1508F0292D822BE32EF42EF80CEE
S1130A30202FF41608F0292D382F3F0D802F3F1555
S1130A4008F0892D282BF32E192F180D802F191734
S1130A5008F0892D322F310F202F311708F0292D5E
S1130A60822B132FB52FB80D202FB51708F0292D81
S1130A70382F3B0F802F3B1708F0892D282BB32FDD
S1130A80A62FA80D302FA61708F0392D2A0F802F76
S1130A902A1708F0892D382BA22FE72FE80D802F75
S1130AA0E71708F0892D3E0F202F3E1708F0292D57
S1130AB0822BE32FF80FA601950160E070E080E03F
S1130AC090E09F1708F481CFF91709F58E1708F401
S1130AD07CCFE817E1F47A1708F477CFA717B9F4B5
S1130AE06B1708F472CFB61791F4511708F46DCF51
S1130AF0151769F44F1508F468CFF41641F43E1540
S1130B0008F463CFE31619F4A71408F45ECF8091B8
S1130B105201909153010197909353018093520194
S1130B20892B09F039CF0E94BB006ECE1F920F9221
S1130B300FB60F9211242F923F924F925F926F92B1
S1130B407F928F929F92AF92BF92CF92DF92EF9259
S1130B50FF920F931F932F933F934F935F936F9342
S1130B607F938F939F93AF93BF93CF93DF93EF9331
S1130B70FF93C4EFD1E00F2EF6E28F2E9924F02DCF
S1130B800F2EF0E96F2EF1E07F2EF02D2224332476
S1130B9023940F2EF4EF4F2EF1E05F2EF02DC8C0FA
S1130BA080913C0190913D010E94E6010E94D10197
S1130BB0F401808182FF5DC080913C0190913D01F0
S1130BC0F7E28F309F0728F4019690933D018093BC
S1130BD03C01C530D10570F0BE0180E090E00E9478
S1130BE0FB062DEC3CEC4CE45FE30E9489070E9479
S1130BF0CF06EB01BE0180E090E00E94FB065B01A2
S1130C006C0120E030E04AE755E40E9489077B014B
S1130C108C0120E030E040E85FE30E94CB068823AB
S1130C2014F4B10122C0C801B70120E03FEF4FE73F
S1130C3057E40E9485071816A4F4C601B50120E004
S1130C4030E040E251E40E9489070E94CF06CB01C4
S1130C50672B09F46DC0F3013197F1F70197D9F7C8
S1130C6067C0C801B7010E94CF06CB010197F1F715
S1130C705FC0F401808183FD02C0E20159C080910C
S1130C803C0190913D01009729F0019790933D011B
S1130C9080933C01C530D10570F0BE0180E090E046
S1130CA00E94FB062DEC3CEC4CE45FE30E948907B8
S1130CB00E94CF06EB01BE0180E090E00E94FB069B
S1130CC05B016C0120E030E04AE755E40E948907AB
S1130CD07B018C0120E030E040E85FE30E94CB061A
S1130CE0882314F4B10121C0C801B70120E03FEF0B
S1130CF04FE757E40E94850718169CF4C601B50116
S1130D0020E030E040E251E40E9489070E94CF06CF
S1130D10CB01672B69F0F3013197F1F70197D9F70C
S1130D2007C0C801B7010E94CF06CB010197F1F7B4
S1130D30F401808181FD34CF80913C0190913D018B
S1130D4090935301809352011092550110925401D3
S1130D50FF91EF91DF91CF91BF91AF919F918F91CF
S1130D607F916F915F914F913F912F911F910F91BF
S1130D70FF90EF90DF90CF90BF90AF909F908F90B7
S1130D807F906F905F904F903F902F900F900FBE89
S1130D900F901F9018956CD008F481E0089594D0BA
S1130DA088F09F5790F0B92F9927B751A0F0D1F050
S1130DB0660F771F881F991F1AF0BA95C9F712C0DA
S1130DC0B13081F09BD0B1E0089598C0672F782F9F
S1130DD08827B85F39F0B93FCCF386957795679546
S1130DE0B395D9F73EF490958095709561957F4FB2
S1130DF08F4F9F4F0895E89409C097FB3EF4909558
S1130E008095709561957F4F8F4F9F4F9923A9F0DF
S1130E10F92F96E9BB279395F6958795779567956E
S1130E20B795F111F8CFFAF4BB0F11F460FF1BC0B2
S1130E306F5F7F4F8F4F9F4F16C0882311F096E945
S1130E4011C0772321F09EE8872F762F05C06623F3
S1130E5071F096E8862F70E060E02AF09A95660FAC
S1130E60771F881FDAF7880F9695879597F9089565
S1130E70990F0008550FAA0BE0E8FEEF16161706A7
S1130E80E807F907C0F012161306E407F50798F00F
S1130E90621B730B840B950B39F40A2661F0232B28
S1130EA0242B252B21F408950A2609F4A140A695A4
S1130EB08FEF811D811D089557FD9058440F551FD4
S1130EC059F05F3F71F04795880F97FB991F61F0C8
S1130ED09F3F79F087950895121613061406551F3F
S1130EE0F2CF4695F1DF08C0161617061806991FAB
S1130EF0F1CF86957105610508940895E894BB27A0
S1130F0066277727CB0197F90895B2DF08F48FEFAE
S1130F1008950BD078C069D028F06ED018F09523CE
S1130F2009F05AC05FC01124EACFC6DFA0F3959F31
S1130F30D1F3950F50E0551F629FF001729FBB27BC
S1130F40F00DB11D639FAA27F00DB11DAA1F649F68
S1130F506627B00DA11D661F829F2227B00DA11D1B
S1130F60621F739FB00DA11D621F839FA00D611DA1
S1130F70221F749F3327A00D611D231F849F600DC2
S1130F80211D822F762F6A2F11249F5750408AF0FB
S1130F90E1F088234AF0EE0FFF1FBB1F661F771F87
S1130FA0881F91505040A9F79E3F510570F014C01E
S1130FB0A6CF5F3FECF3983EDCF386957795679573
S1130FC0B795F795E7959F5FC1F7FE2B880F911DA5
S1130FD09695879597F9089597F99F6780E870E04B
S1130FE060E008959FEF80EC089500240A9416169B
S1130FF0170618060906089500240A941216130603
S1131000140605060895092E0394000C11F4882390
S113101052F0BB0F40F4BF2B11F460FF04C06F5FAC
S11310207F4F8F4F9F4F0895AA1BBB1B51E107C0F1
S1131030AA1FBB1FA617B70710F0A61BB70B881F64
S1131040991F5A95A9F780959095BC01CD010895F3
S1131050A1E21A2EAA1BBB1BFD010DC0AA1FBB1FB8
S1131060EE1FFF1FA217B307E407F50720F0A21B2A
S1131070B30BE40BF50B661F771F881F991F1A9497
S113108069F760957095809590959B01AC01BD01C1
S10B1090CF010895F894FFCF8D
S113109842300044350044340043340044370044AB
S11310A833004430004431004332004436004335B1
S11310B80041300000010301060109010C010F0180
S11310C81201150118011B011E012101050001006F
S11310D801010001000001000101010000000101FB
S10510E8010100
S9030000FC
